{
  "contractName": "NFTMarket",
  "abi": [
    {
      "inputs": [],
      "stateMutability": "nonpayable",
      "type": "constructor"
    },
    {
      "inputs": [
        {
          "internalType": "address",
          "name": "nftContract",
          "type": "address"
        },
        {
          "internalType": "uint256",
          "name": "tokenId",
          "type": "uint256"
        },
        {
          "internalType": "uint256",
          "name": "price",
          "type": "uint256"
        }
      ],
      "name": "createMarketItem",
      "outputs": [],
      "stateMutability": "payable",
      "type": "function"
    },
    {
      "inputs": [
        {
          "internalType": "address",
          "name": "nftContract",
          "type": "address"
        },
        {
          "internalType": "uint256",
          "name": "itemId",
          "type": "uint256"
        }
      ],
      "name": "createMarketSale",
      "outputs": [],
      "stateMutability": "payable",
      "type": "function"
    }
  ],
  "bytecode": "0x60806040526658d15e1762800060045534801561001b57600080fd5b50600160008190555033600360006101000a81548173ffffffffffffffffffffffffffffffffffffffff021916908373ffffffffffffffffffffffffffffffffffffffff1602179055506109ae806100746000396000f3fe6080604052600436106100295760003560e01c806358eb2df51461002e578063c23b139e1461004a575b600080fd5b61004860048036038101906100439190610683565b610066565b005b610064600480360381019061005f9190610647565b61032c565b005b61006e61059f565b600081116100b1576040517f08c379a00000000000000000000000000000000000000000000000000000000081526004016100a8906107b3565b60405180910390fd5b60045434146100f5576040517f08c379a00000000000000000000000000000000000000000000000000000000081526004016100ec906107f3565b60405180910390fd5b6100ff60016105ef565b600061010b6001610605565b90506040518060e001604052808281526020018573ffffffffffffffffffffffffffffffffffffffff1681526020018481526020013373ffffffffffffffffffffffffffffffffffffffff168152602001600073ffffffffffffffffffffffffffffffffffffffff16815260200183815260200160001515815250600560008381526020019081526020016000206000820151816000015560208201518160010160006101000a81548173ffffffffffffffffffffffffffffffffffffffff021916908373ffffffffffffffffffffffffffffffffffffffff1602179055506040820151816002015560608201518160030160006101000a81548173ffffffffffffffffffffffffffffffffffffffff021916908373ffffffffffffffffffffffffffffffffffffffff16021790555060808201518160040160006101000a81548173ffffffffffffffffffffffffffffffffffffffff021916908373ffffffffffffffffffffffffffffffffffffffff16021790555060a0820151816005015560c08201518160060160006101000a81548160ff0219169083151502179055509050508373ffffffffffffffffffffffffffffffffffffffff166323b872dd3330866040518463ffffffff1660e01b81526004016102ec9392919061077c565b600060405180830381600087803b15801561030657600080fd5b505af115801561031a573d6000803e3d6000fd5b5050505050610327610613565b505050565b61033461059f565b6000600560008381526020019081526020016000206005015490506000600560008481526020019081526020016000206002015490508134146103ac576040517f08c379a00000000000000000000000000000000000000000000000000000000081526004016103a3906107d3565b60405180910390fd5b6005600084815260200190815260200160002060030160009054906101000a900473ffffffffffffffffffffffffffffffffffffffff1673ffffffffffffffffffffffffffffffffffffffff166108fc349081150290604051600060405180830381858888f19350505050158015610428573d6000803e3d6000fd5b508373ffffffffffffffffffffffffffffffffffffffff166323b872dd3033846040518463ffffffff1660e01b81526004016104669392919061077c565b600060405180830381600087803b15801561048057600080fd5b505af1158015610494573d6000803e3d6000fd5b50505050336005600085815260200190815260200160002060040160006101000a81548173ffffffffffffffffffffffffffffffffffffffff021916908373ffffffffffffffffffffffffffffffffffffffff16021790555060016005600085815260200190815260200160002060060160006101000a81548160ff02191690831515021790555061052660026105ef565b600360009054906101000a900473ffffffffffffffffffffffffffffffffffffffff1673ffffffffffffffffffffffffffffffffffffffff166108fc6004549081150290604051600060405180830381858888f19350505050158015610590573d6000803e3d6000fd5b50505061059b610613565b5050565b600260005414156105e5576040517f08c379a00000000000000000000000000000000000000000000000000000000081526004016105dc90610813565b60405180910390fd5b6002600081905550565b6001816000016000828254019250508190555050565b600081600001549050919050565b6001600081905550565b60008135905061062c8161094a565b92915050565b60008135905061064181610961565b92915050565b6000806040838503121561065a57600080fd5b60006106688582860161061d565b925050602061067985828601610632565b9150509250929050565b60008060006060848603121561069857600080fd5b60006106a68682870161061d565b93505060206106b786828701610632565b92505060406106c886828701610632565b9150509250925092565b6106db81610844565b82525050565b60006106ee601683610833565b91506106f982610880565b602082019050919050565b6000610711602483610833565b915061071c826108a9565b604082019050919050565b6000610734601283610833565b915061073f826108f8565b602082019050919050565b6000610757601f83610833565b915061076282610921565b602082019050919050565b61077681610876565b82525050565b600060608201905061079160008301866106d2565b61079e60208301856106d2565b6107ab604083018461076d565b949350505050565b600060208201905081810360008301526107cc816106e1565b9050919050565b600060208201905081810360008301526107ec81610704565b9050919050565b6000602082019050818103600083015261080c81610727565b9050919050565b6000602082019050818103600083015261082c8161074a565b9050919050565b600082825260208201905092915050565b600061084f82610856565b9050919050565b600073ffffffffffffffffffffffffffffffffffffffff82169050919050565b6000819050919050565b7f7072696365206d75737420626520706f73697469766500000000000000000000600082015250565b7f7075726368617365206661696c65642063757a20696e7375666669656e74207060008201527f7269636500000000000000000000000000000000000000000000000000000000602082015250565b7f6e656564206c697374696e672070726963650000000000000000000000000000600082015250565b7f5265656e7472616e637947756172643a207265656e7472616e742063616c6c00600082015250565b61095381610844565b811461095e57600080fd5b50565b61096a81610876565b811461097557600080fd5b5056fea2646970667358221220d74d6f01dae769265de7f94c9e20772c9b89515292cc7ed4c0a4ce0efdcf6b1b64736f6c63430008040033",
  "immutableReferences": {},
  "source": "// SPDX-License-Identifier: MIT OR Apache-2.0\r\npragma solidity ^0.8.3;\r\n\r\nimport \"@openzeppelin/contracts/utils/Counters.sol\";\r\nimport \"@openzeppelin/contracts/security/ReentrancyGuard.sol\";\r\nimport \"@openzeppelin/contracts/token/ERC721/ERC721.sol\";\r\n\r\ncontract NFTMarket is ReentrancyGuard {\r\n    using Counters for Counters.Counter;\r\n    Counters.Counter private _itemIds;\r\n    Counters.Counter private _itemsSold;\r\n\r\n    address payable owner;\r\n    uint256 listingPrice = 0.025 ether;\r\n\r\n    constructor() {\r\n        owner = payable(msg.sender);\r\n    }\r\n\r\n    /*  \r\n    Definitions MarketItem\r\n    @param: itemId \r\n    @param: ntfContract NFT ERC721 URI Storage deployed on ERC721URIStorage\r\n    @param: seller  Address of Seller\r\n    @param: owner Address of Owner\r\n    @param: price Price of the item\r\n    @param: sold  Sold or not, boolean\r\n    */\r\n    struct MarketItem {\r\n        uint itemId;\r\n        address contractAddress;\r\n        uint256 tokenId;\r\n        address payable seller;\r\n        address payable owner;\r\n        uint256 price;\r\n        bool sold;\r\n    }\r\n\r\n    mapping(uint256 => MarketItem) private idToMarketItem;\r\n\r\n    /* Listing NFT to the Marketplace */\r\n    function createMarketItem(\r\n        address nftContract,\r\n        uint256 tokenId,\r\n        uint256 price\r\n    ) public payable nonReentrant {\r\n        require(price > 0, \"price must be positive\");\r\n        require(msg.value == listingPrice, \"need listing price\");\r\n\r\n        _itemIds.increment();\r\n        uint256 itemId = _itemIds.current();\r\n\r\n        idToMarketItem[itemId] = MarketItem(\r\n            itemId,\r\n            nftContract,\r\n            tokenId,\r\n            payable(msg.sender),\r\n            payable(address(0)),\r\n            price,\r\n            false\r\n        );\r\n\r\n        IERC721(nftContract).transferFrom(msg.sender, address(this), tokenId);\r\n\r\n        // emit MarketItemCreated(\r\n        //     itemId,\r\n        //     nftContract,\r\n        //     tokenId,\r\n        //     msg.sender,\r\n        //     address(0),\r\n        //     price,\r\n        //     false\r\n        // );\r\n    }\r\n\r\n    /* sellContractcreateMarketSale */\r\n    function createMarketSale(\r\n        address nftContract,\r\n        uint itemId\r\n    ) public payable nonReentrant {\r\n        uint256 price = idToMarketItem[itemId].price;\r\n        uint256 tokenId = idToMarketItem[itemId].tokenId;\r\n        require(msg.value == price, \"purchase failed cuz insuffient price\");\r\n\r\n        idToMarketItem[itemId].seller.transfer(msg.value);\r\n\r\n        IERC721(nftContract).transferFrom(address(this), msg.sender, tokenId);\r\n        idToMarketItem[itemId].owner = payable(msg.sender);\r\n        idToMarketItem[itemId].sold = true;\r\n        _itemsSold.increment();\r\n\r\n        payable(owner).transfer(listingPrice);\r\n    }\r\n}\r\n",
  "sourcePath": "C:\\Users\\Aliceonly\\Desktop\\project\\polygon-nftmarket\\metaverse\\src\\contracts\\NFTMarket.sol",
  "compiler": {
    "name": "solc",
    "version": "0.8.4+commit.c7e474f2.Emscripten.clang"
  },
  "schemaVersion": "3.4.15",
  "updatedAt": "2023-09-03T07:51:58.201Z",
  "devdoc": {
    "kind": "dev",
    "methods": {},
    "version": 1
  },
  "userdoc": {
    "kind": "user",
    "methods": {},
    "version": 1
  }
}